{
  "contractName": "BlockReward",
  "abi": [
    {
      "constant": true,
      "inputs": [],
      "name": "communityFund",
      "outputs": [
        {
          "name": "",
          "type": "address"
        }
      ],
      "payable": false,
      "stateMutability": "view",
      "type": "function"
    },
    {
      "constant": true,
      "inputs": [],
      "name": "checkRewardPeriodEnded",
      "outputs": [
        {
          "name": "",
          "type": "bool"
        }
      ],
      "payable": false,
      "stateMutability": "view",
      "type": "function"
    },
    {
      "constant": true,
      "inputs": [],
      "name": "rewardPeriodEnd",
      "outputs": [
        {
          "name": "",
          "type": "uint256"
        }
      ],
      "payable": false,
      "stateMutability": "view",
      "type": "function"
    },
    {
      "constant": true,
      "inputs": [
        {
          "name": "",
          "type": "uint256"
        }
      ],
      "name": "sCurve",
      "outputs": [
        {
          "name": "",
          "type": "uint256"
        }
      ],
      "payable": false,
      "stateMutability": "view",
      "type": "function"
    },
    {
      "constant": true,
      "inputs": [],
      "name": "communityFundAmount",
      "outputs": [
        {
          "name": "",
          "type": "uint256"
        }
      ],
      "payable": false,
      "stateMutability": "view",
      "type": "function"
    },
    {
      "constant": true,
      "inputs": [
        {
          "name": "",
          "type": "address"
        },
        {
          "name": "",
          "type": "uint256"
        }
      ],
      "name": "mintedForAccountInBlock",
      "outputs": [
        {
          "name": "",
          "type": "uint256"
        }
      ],
      "payable": false,
      "stateMutability": "view",
      "type": "function"
    },
    {
      "constant": true,
      "inputs": [
        {
          "name": "",
          "type": "address"
        }
      ],
      "name": "mintedForAccount",
      "outputs": [
        {
          "name": "",
          "type": "uint256"
        }
      ],
      "payable": false,
      "stateMutability": "view",
      "type": "function"
    },
    {
      "constant": true,
      "inputs": [
        {
          "name": "",
          "type": "uint256"
        }
      ],
      "name": "mintedInBlock",
      "outputs": [
        {
          "name": "",
          "type": "uint256"
        }
      ],
      "payable": false,
      "stateMutability": "view",
      "type": "function"
    },
    {
      "constant": true,
      "inputs": [],
      "name": "REQUIRED_CURVE_LENGTH",
      "outputs": [
        {
          "name": "",
          "type": "uint256"
        }
      ],
      "payable": false,
      "stateMutability": "view",
      "type": "function"
    },
    {
      "constant": true,
      "inputs": [],
      "name": "mintedTotally",
      "outputs": [
        {
          "name": "",
          "type": "uint256"
        }
      ],
      "payable": false,
      "stateMutability": "view",
      "type": "function"
    },
    {
      "constant": true,
      "inputs": [
        {
          "name": "",
          "type": "address"
        }
      ],
      "name": "payoutAddresses",
      "outputs": [
        {
          "name": "",
          "type": "address"
        }
      ],
      "payable": false,
      "stateMutability": "view",
      "type": "function"
    },
    {
      "constant": true,
      "inputs": [
        {
          "name": "_currentBlock",
          "type": "uint256"
        }
      ],
      "name": "getBlockReward",
      "outputs": [
        {
          "name": "",
          "type": "uint256"
        }
      ],
      "payable": false,
      "stateMutability": "view",
      "type": "function"
    },
    {
      "constant": true,
      "inputs": [],
      "name": "mintedForCommunity",
      "outputs": [
        {
          "name": "",
          "type": "uint256"
        }
      ],
      "payable": false,
      "stateMutability": "view",
      "type": "function"
    },
    {
      "constant": true,
      "inputs": [
        {
          "name": "",
          "type": "address"
        }
      ],
      "name": "mintedForCommunityForAccount",
      "outputs": [
        {
          "name": "",
          "type": "uint256"
        }
      ],
      "payable": false,
      "stateMutability": "view",
      "type": "function"
    },
    {
      "constant": true,
      "inputs": [],
      "name": "blockStepSize",
      "outputs": [
        {
          "name": "",
          "type": "uint256"
        }
      ],
      "payable": false,
      "stateMutability": "view",
      "type": "function"
    },
    {
      "inputs": [
        {
          "name": "_communityFundAddress",
          "type": "address"
        },
        {
          "name": "_communityFundAmount",
          "type": "uint256"
        }
      ],
      "payable": false,
      "stateMutability": "nonpayable",
      "type": "constructor"
    },
    {
      "constant": false,
      "inputs": [
        {
          "name": "_newFund",
          "type": "address"
        }
      ],
      "name": "setCommunityFund",
      "outputs": [],
      "payable": false,
      "stateMutability": "nonpayable",
      "type": "function"
    },
    {
      "constant": false,
      "inputs": [
        {
          "name": "_newPayoutAddress",
          "type": "address"
        }
      ],
      "name": "setPayoutAddress",
      "outputs": [],
      "payable": false,
      "stateMutability": "nonpayable",
      "type": "function"
    },
    {
      "constant": false,
      "inputs": [],
      "name": "resetPayoutAddress",
      "outputs": [],
      "payable": false,
      "stateMutability": "nonpayable",
      "type": "function"
    },
    {
      "constant": false,
      "inputs": [
        {
          "name": "benefactors",
          "type": "address[]"
        },
        {
          "name": "kind",
          "type": "uint16[]"
        }
      ],
      "name": "reward",
      "outputs": [
        {
          "name": "",
          "type": "address[]"
        },
        {
          "name": "",
          "type": "uint256[]"
        }
      ],
      "payable": false,
      "stateMutability": "nonpayable",
      "type": "function"
    }
  ],
  "bytecode": "0x608060405273fffffffffffffffffffffffffffffffffffffffe600960006101000a81548173ffffffffffffffffffffffffffffffffffffffff021916908373ffffffffffffffffffffffffffffffffffffffff1602179055503480156200006657600080fd5b5060405160408062001bad833981018060405260408110156200008857600080fd5b810190808051906020019092919080519060200190929190505050620000b36200016360201b60201c565b60786000805490501462000113576040517f08c379a000000000000000000000000000000000000000000000000000000000815260040180806020018281038252602781526020018062001b866027913960400191505060405180910390fd5b81600b60006101000a81548173ffffffffffffffffffffffffffffffffffffffff021916908373ffffffffffffffffffffffffffffffffffffffff16021790555080600a81905550505062000878565b60405180610f0001604052806704398372e97bae8081526020016704398372e97bae8081526020016704398372e97bae8081526020016704398372e97bae8081526020016704398372e97bae8081526020016704398372e97bae8081526020016704398372e97bae8081526020016704395680a6af46808152602001670438cfa9de4a0e808152602001670437eeee904c06808152602001670436b44ebcb52e8081526020016704351fca638586808152602001670433316184bd0e808152602001670430e914205bc680815260200167042e46e23661ae80815260200167042b4acbc6cec6808152602001670427f4d0d1a30e80815260200167042444f156de868081526020016704203b2d56812e80815260200167041bd784d08b0680815260200167041719f7c4fc0e808152602001670412028633d44680815260200167040c91301d13ae808152602001670406c5f580ba46808152602001670400a0d65ec80e8081526020016703fa21d2b73d068081526020016703f348ea8a192e8081526020016703ec161dd75c868081526020016703e4896c9f070e8081526020016703dca2d6e118c68081526020016703d4625c9d91ae8081526020016703cbc7fdd471c68081526020016703c2d3ba85b90e8081526020016703b98592b167868081526020016703afdd86577d2e8081526020016703a5db9577fa0680815260200167039b7fc012de0e808152602001670390ca06282946808152602001670385ba67b7dbae80815260200167037a50e4c1f54680815260200167036e8d7d46760e8081526020016703627031455e06808152602001670355f900bead2e80815260200167034927ebb2638680815260200167033bfcf220810e80815260200167032e78140905c680815260200167032099516bf1ae80815260200167031260aa4944c6808152602001670303ce1ea0ff0e8081526020016702f4e1ae7320868081526020016702e59b59bfa92e8081526020016702d5fb208699068081526020016702c60102c7f00e8081526020016702b5ad0083ae468081526020016702a4ff19b9d3ae808152602001670293f74e6a6046808152602001670282959e95540e808152602001670270da0a3aaf0680815260200167025ec4915a712e80815260200167024c5533f49a86808152602001670238da1d6b04400081526020016702260c5cdf4d240081526020016702138f83989f90008152602001670201639196fb840081526020016701ef8886da61000081526020016701ddfe6362d0040081526020016701ccc5273048900081526020016701bbdcd242caa40081526020016701ab45649a564000815260200167019afede36eb6400815260200167018b093f188a1000815260200167017b64873f324400815260200167016c10b6aae40000815260200167015d0dcd5b9f4400815260200167014e5bcb51641000815260200167013ffab08c3264008152602001670131ea7d0c0a400081526020016701242b30d0eba4008152602001670116bccbdad6900081526020016701099f4e29cb0400815260200166fcd2b7bdc90000815260200166f0570896d08400815260200166e42c40b4e19000815260200166d8526017fc2400815260200166ccc966c0204000815260200166c19154ad4de400815260200166b6aa29df851000815260200166ac13e656c5c400815260200166a1ce8a1310000081526020016697da151463c4008152602001668e36875ac1100081526020016684e3e0e627e4008152602001667be221b6984000815260200166733149cc1224008152602001666ad1592695900081526020016662c24fc62284008152602001665b042daab900008152602001665396f2d45904008152602001664c7a9f4302900081526020016645af32f6b5a4008152602001663f34adef724000815260200166390b102d386400815260200166333259b00810008152602001662daa8a77e144008152602001662873a284c40000815260200166238da1d6b044008152602001661ef8886da610008152602001661ab45649a5640081526020016616c10b6aae4000815260200166131ea7d0c0a4008152602001660fcd2b7bdc90008152602001660ccc966c0204008152602001660a1ce8a131000081526020016607be221b69840081526020016605b042daab900081526020016603f34adef7240081526020016602873a284c4000815260200166016c10b6aae400815260200165a1ce8a1310008152602001652873a284c4008152506000906078620007e5929190620007fe565b5062080520600181905550607860015402600281905550565b8280548282559060005260206000209081019282156200083d579160200282015b828111156200083c5782518255916020019190600101906200081f565b5b5090506200084c919062000850565b5090565b6200087591905b808211156200087157600081600090555060010162000857565b5090565b90565b6112fe80620008886000396000f3fe608060405234801561001057600080fd5b50600436106101205760003560e01c80634476d66a116100ad57806394f7f62b1161007157806394f7f62b1461045d578063df6a50301461049f578063e6e100db146104bd578063f91c289814610515578063fb1ac5251461068057610120565b80634476d66a146103515780634f4013fb14610393578063553a5c85146103b157806358ceb672146103cf57806360d4b8be146103d957610120565b80631a488047116100f45780631a488047146101f157806330f6eb161461020f57806333ea51a81461027157806337339a16146102b55780633d84b8c1146102f957610120565b8062f380f414610125578063078d8e7a1461016f5780630f411cdb1461019157806318129375146101af575b600080fd5b61012d61069e565b604051808273ffffffffffffffffffffffffffffffffffffffff1673ffffffffffffffffffffffffffffffffffffffff16815260200191505060405180910390f35b6101776106c4565b604051808215151515815260200191505060405180910390f35b6101996106d4565b6040518082815260200191505060405180910390f35b6101db600480360360208110156101c557600080fd5b81019080803590602001909291905050506106da565b6040518082815260200191505060405180910390f35b6101f96106fb565b6040518082815260200191505060405180910390f35b61025b6004803603604081101561022557600080fd5b81019080803573ffffffffffffffffffffffffffffffffffffffff16906020019092919080359060200190929190505050610701565b6040518082815260200191505060405180910390f35b6102b36004803603602081101561028757600080fd5b81019080803573ffffffffffffffffffffffffffffffffffffffff169060200190929190505050610726565b005b6102f7600480360360208110156102cb57600080fd5b81019080803573ffffffffffffffffffffffffffffffffffffffff1690602001909291905050506107a7565b005b61033b6004803603602081101561030f57600080fd5b81019080803573ffffffffffffffffffffffffffffffffffffffff1690602001909291905050506108ae565b6040518082815260200191505060405180910390f35b61037d6004803603602081101561036757600080fd5b81019080803590602001909291905050506108c6565b6040518082815260200191505060405180910390f35b61039b6108de565b6040518082815260200191505060405180910390f35b6103b96108e3565b6040518082815260200191505060405180910390f35b6103d76108e9565b005b61041b600480360360208110156103ef57600080fd5b81019080803573ffffffffffffffffffffffffffffffffffffffff16906020019092919050505061094d565b604051808273ffffffffffffffffffffffffffffffffffffffff1673ffffffffffffffffffffffffffffffffffffffff16815260200191505060405180910390f35b6104896004803603602081101561047357600080fd5b8101908080359060200190929190505050610980565b6040518082815260200191505060405180910390f35b6104a76109c4565b6040518082815260200191505060405180910390f35b6104ff600480360360208110156104d357600080fd5b81019080803573ffffffffffffffffffffffffffffffffffffffff1690602001909291905050506109ca565b6040518082815260200191505060405180910390f35b6105e16004803603604081101561052b57600080fd5b810190808035906020019064010000000081111561054857600080fd5b82018360208201111561055a57600080fd5b8035906020019184602083028401116401000000008311171561057c57600080fd5b90919293919293908035906020019064010000000081111561059d57600080fd5b8201836020820111156105af57600080fd5b803590602001918460208302840111640100000000831117156105d157600080fd5b90919293919293905050506109e2565b604051808060200180602001838103835285818151815260200191508051906020019060200280838360005b8381101561062857808201518184015260208101905061060d565b50505050905001838103825284818151815260200191508051906020019060200280838360005b8381101561066a57808201518184015260208101905061064f565b5050505090500194505050505060405180910390f35b610688610edb565b6040518082815260200191505060405180910390f35b600b60009054906101000a900473ffffffffffffffffffffffffffffffffffffffff1681565b60006106cf43610ee1565b905090565b60025481565b600081815481106106e757fe5b906000526020600020016000915090505481565b600a5481565b6008602052816000526040600020602052806000526040600020600091509150505481565b80600c60003373ffffffffffffffffffffffffffffffffffffffff1673ffffffffffffffffffffffffffffffffffffffff16815260200190815260200160002060006101000a81548173ffffffffffffffffffffffffffffffffffffffff021916908373ffffffffffffffffffffffffffffffffffffffff16021790555050565b600b60009054906101000a900473ffffffffffffffffffffffffffffffffffffffff1673ffffffffffffffffffffffffffffffffffffffff163373ffffffffffffffffffffffffffffffffffffffff161461086a576040517f08c379a00000000000000000000000000000000000000000000000000000000081526004018080602001828103825260208152602001807f43616c6c6572206973206e6f742074686520636f6d6d756e6974792066756e6481525060200191505060405180910390fd5b80600b60006101000a81548173ffffffffffffffffffffffffffffffffffffffff021916908373ffffffffffffffffffffffffffffffffffffffff16021790555050565b60066020528060005260406000206000915090505481565b60076020528060005260406000206000915090505481565b607881565b60035481565b600c60003373ffffffffffffffffffffffffffffffffffffffff1673ffffffffffffffffffffffffffffffffffffffff16815260200190815260200160002060006101000a81549073ffffffffffffffffffffffffffffffffffffffff0219169055565b600c6020528060005260406000206000915054906101000a900473ffffffffffffffffffffffffffffffffffffffff1681565b600061098b82610ee1565b1561099957600090506109bf565b600060015483816109a657fe5b04815481106109b157fe5b906000526020600020015490505b919050565b60045481565b60056020528060005260406000206000915090505481565b606080600960009054906101000a900473ffffffffffffffffffffffffffffffffffffffff1673ffffffffffffffffffffffffffffffffffffffff163373ffffffffffffffffffffffffffffffffffffffff1614610aa8576040517f08c379a00000000000000000000000000000000000000000000000000000000081526004018080602001828103825260188152602001807f43616c6c6572206973206e6f74207468652073797374656d000000000000000081525060200191505060405180910390fd5b838390508686905014610b06576040517f08c379a00000000000000000000000000000000000000000000000000000000081526004018080602001828103825260258152602001806112ae6025913960400191505060405180910390fd5b60018686905014610b7f576040517f08c379a00000000000000000000000000000000000000000000000000000000081526004018080602001828103825260208152602001807f42656e65666163746f7273206c697374206c656e677468206973206e6f74203181525060200191505060405180910390fd5b600084846000818110610b8e57fe5b9050602002013561ffff1661ffff1614610bf3576040517f08c379a000000000000000000000000000000000000000000000000000000000815260040180806020018281038252602281526020018061128c6022913960400191505060405180910390fd5b600073ffffffffffffffffffffffffffffffffffffffff1686866000818110610c1857fe5b9050602002013573ffffffffffffffffffffffffffffffffffffffff1673ffffffffffffffffffffffffffffffffffffffff161480610c5c5750610c5b43610ee1565b5b15610cd2576000604051908082528060200260200182016040528015610c915781602001602082028038833980820191505090505b506000604051908082528060200260200182016040528015610cc25781602001602082028038833980820191505090505b5081915080905091509150610ed2565b60606002604051908082528060200260200182016040528015610d045781602001602082028038833980820191505090505b50905060608151604051908082528060200260200182016040528015610d395781602001602082028038833980820191505090505b509050610d6e88886000818110610d4c57fe5b9050602002013573ffffffffffffffffffffffffffffffffffffffff16610ef0565b82600081518110610d7b57fe5b602002602001019073ffffffffffffffffffffffffffffffffffffffff16908173ffffffffffffffffffffffffffffffffffffffff1681525050610dbe43610980565b81600081518110610dcb57fe5b602002602001018181525050610e02600b60009054906101000a900473ffffffffffffffffffffffffffffffffffffffff16610ef0565b82600181518110610e0f57fe5b602002602001019073ffffffffffffffffffffffffffffffffffffffff16908173ffffffffffffffffffffffffffffffffffffffff1681525050600a5481600181518110610e5957fe5b602002602001018181525050610e9782600081518110610e7557fe5b602002602001015182600081518110610e8a57fe5b6020026020010151610f9d565b610ec982600181518110610ea757fe5b602002602001015182600181518110610ebc57fe5b6020026020010151611145565b81819350935050505b94509492505050565b60015481565b60006002548210159050919050565b600080600c60008473ffffffffffffffffffffffffffffffffffffffff1673ffffffffffffffffffffffffffffffffffffffff16815260200190815260200160002060009054906101000a900473ffffffffffffffffffffffffffffffffffffffff169050600073ffffffffffffffffffffffffffffffffffffffff168173ffffffffffffffffffffffffffffffffffffffff161415610f935782915050610f98565b809150505b919050565b61100081600860008573ffffffffffffffffffffffffffffffffffffffff1673ffffffffffffffffffffffffffffffffffffffff16815260200190815260200160002060004381526020019081526020016000205461120390919063ffffffff16565b600860008473ffffffffffffffffffffffffffffffffffffffff1673ffffffffffffffffffffffffffffffffffffffff1681526020019081526020016000206000438152602001908152602001600020819055506110a681600660008573ffffffffffffffffffffffffffffffffffffffff1673ffffffffffffffffffffffffffffffffffffffff1681526020019081526020016000205461120390919063ffffffff16565b600660008473ffffffffffffffffffffffffffffffffffffffff1673ffffffffffffffffffffffffffffffffffffffff1681526020019081526020016000208190555061110f81600760004381526020019081526020016000205461120390919063ffffffff16565b600760004381526020019081526020016000208190555061113b8160035461120390919063ffffffff16565b6003819055505050565b61115a8160045461120390919063ffffffff16565b6004819055506111b281600560008573ffffffffffffffffffffffffffffffffffffffff1673ffffffffffffffffffffffffffffffffffffffff1681526020019081526020016000205461120390919063ffffffff16565b600560008473ffffffffffffffffffffffffffffffffffffffff1673ffffffffffffffffffffffffffffffffffffffff168152602001908152602001600020819055506111ff8282610f9d565b5050565b600080828401905083811015611281576040517f08c379a000000000000000000000000000000000000000000000000000000000815260040180806020018281038252600e8152602001807f4f766572666c6f77206572726f7200000000000000000000000000000000000081525060200191505060405180910390fd5b809150509291505056fe42656e65666163746f72206973206e6f742074686520626c6f636b20617574686f7242656e65666163746f72732f7479706573206c697374206c656e6774682064696666657273a165627a7a72305820e330a1754c478ae23a5a11099e56b1e63eef598320217894fe3e2e9f578f591b0029526577617264206375727665206973206e6f7420746865207265717569726564206c656e677468",
  "source": "pragma solidity 0.5.8;\n\nimport \"../interfaces/IBlockReward.sol\";\nimport \"./SCurveProvider.sol\";\n\nimport \"../libs/SafeMath.sol\";\n\n\n/// @title Block reward contract\n/// @notice Performs payouts at each new created block. Block authors\n/// are rewarded according to an S-curve, while there is a constant payout for\n/// a community fund for a certain period of time.\n/// @dev Contract is used by the Parity client and its address is\n/// specified in the chainspec\ncontract BlockReward is SCurveProvider, IBlockReward {\n    using SafeMath for uint256;\n\n    // storage variables for logging reward statistics\n    uint256 public mintedTotally;\n    uint256 public mintedForCommunity;\n    mapping(address => uint256) public mintedForCommunityForAccount;\n    mapping(address => uint256) public mintedForAccount;\n    mapping(uint256 => uint256) public mintedInBlock;\n    mapping(address => mapping(uint256 => uint256)) public mintedForAccountInBlock;\n\n    /// Parity client SYSTEM_ADDRESS: 2^160 - 2\n    address internal systemAddress = 0xffffFFFfFFffffffffffffffFfFFFfffFFFfFFfE;\n    /// The constant amount that gets sent to the\n    /// community fund with each new block\n    uint256 public communityFundAmount;\n    /// Address of the community fund. Preferably a multisig wallet\n    address public communityFund;\n    /// Mapping of addresses and their payout addresses where rewards are minted\n    mapping(address => address) public payoutAddresses;\n\n    constructor(address _communityFundAddress, uint256 _communityFundAmount)\n        public\n    {\n        communityFund = _communityFundAddress;\n        communityFundAmount = _communityFundAmount;\n    }\n\n    /// @notice Sets community fund address. Ideally\n    /// it is a multisig wallet address\n    /// @param _newFund New community fund address\n    function setCommunityFund(address _newFund)\n        external\n    {\n        require(\n            msg.sender == communityFund,\n            \"Caller is not the community fund\"\n        );\n        communityFund = _newFund;\n    }\n\n    /// @notice Sets payout address. Every sender can only set its own\n    /// payout address. The contract only rewards block authors, but it\n    /// is not checking who sets an address for itself. The community fund \n    /// can set a payout address too, if desired.\n    /// @param _newPayoutAddress The payout address belonging to the sender\n    function setPayoutAddress(address _newPayoutAddress)\n        external\n    {\n        payoutAddresses[msg.sender] = _newPayoutAddress;\n    }\n\n    /// @notice Resets the payout address. If a payout address is reseted/not set,\n    /// the minted amounts get sent to the original one. The sender resets its own \n    /// payout address\n    function resetPayoutAddress()\n        external\n    {\n        delete payoutAddresses[msg.sender];\n    }\n\n    /// @notice The function that is called by the client to issue rewards at a new block. The rewards are\n    /// minted: the balances of the corresponing addresses are simply increased with the amount\n    /// @dev It is a service transaction invoked by system, which doesn't cost anyhting but still can\n    /// modify state. Cannot emit events.\n    /// @param benefactors List of addresses that can be rewarded\n    /// @param kind List of type codes belonging to the benefactors. They determine the category\n    /// an address belongs to. 0 is for block authors which we are only interested in\n    /// @return List of addreses to be rewarded, and list of corresponding reward amounts in wei\n    function reward(address[] calldata benefactors, uint16[] calldata kind)\n        external\n        returns (address[] memory, uint256[] memory)\n    {\n        require(msg.sender == systemAddress, \"Caller is not the system\");\n        require(benefactors.length == kind.length, \"Benefactors/types list length differs\");\n        require(benefactors.length == 1, \"Benefactors list length is not 1\");\n        require(kind[0] == 0, \"Benefactor is not the block author\");\n\n        if (benefactors[0] == address(0) || _checkRewardPeriodEnded(block.number)) {\n            return (new address[](0), new uint256[](0));\n        }\n\n        address[] memory receivers = new address[](2);\n        uint256[] memory rewards = new uint256[](receivers.length);\n\n        receivers[0] = _getPayoutAddress(benefactors[0]);\n        rewards[0] = getBlockReward(block.number);\n        \n        receivers[1] = _getPayoutAddress(communityFund);\n        rewards[1] = communityFundAmount;\n\n        _logMinted(receivers[0], rewards[0]);\n        _logCommunityMinted(receivers[1], rewards[1]);\n    \n        return (receivers, rewards);\n    }\n\n    /// @dev Retrieves the payout address of an account if there is any. If not specified \n    /// or resetted, returns the original account\n    /// @param _somebody An account address we retrieve the payout address for\n    /// @return The payout address\n    function _getPayoutAddress(address _somebody)\n        private\n        view\n        returns (address)\n    {\n        address _payoutAddress = payoutAddresses[_somebody];\n        if (_payoutAddress == address(0)) {\n            return _somebody;\n        }\n        return _payoutAddress;\n    }\n    \n    /// @dev Logs a community-mint event. Calls `_logMinted` after setting the\n    /// community specific metrics\n    /// @param _account The account address where the tokens are minted\n    /// @param _amount The minted amount in wei\n    function _logCommunityMinted(address _account, uint256 _amount)\n        private\n    {\n        mintedForCommunity = mintedForCommunity.add(_amount);\n\n        mintedForCommunityForAccount[_account] = mintedForCommunityForAccount[_account].add(_amount);\n        \n        _logMinted(_account, _amount);\n    }\n\n    /// @dev Logs a mint event, and stores related metrics (counters).\n    /// @param _account The account address where the tokens are minted\n    /// @param _amount The minted amount in wei\n    function _logMinted(address _account, uint256 _amount)\n        private\n    {\n        mintedForAccountInBlock[_account][block.number] = mintedForAccountInBlock[_account][block.number].add(_amount);\n\n        mintedForAccount[_account] = mintedForAccount[_account].add(_amount);\n\n        mintedInBlock[block.number] = mintedInBlock[block.number].add(_amount);\n\n        mintedTotally = mintedTotally.add(_amount);\n    }\n}\n",
  "sourcePath": "/home/aznagy/work/ewf/genome/ew-chain-monitoring/node_modules/ewc-system-contracts/contracts/reward/BlockReward.sol",
  "compiler": {
    "name": "solc",
    "version": "0.5.8+commit.23d335f2.Emscripten.clang"
  },
  "schemaVersion": "3.0.10",
  "updatedAt": "2019-07-03T22:17:33.745Z",
  "devdoc": {
    "details": "Contract is used by the Parity client and its address is specified in the chainspec",
    "methods": {
      "checkRewardPeriodEnded()": {
        "return": "True if the reward period has ended, false otherwise"
      },
      "getBlockReward(uint256)": {
        "params": {
          "_currentBlock": "The block number to calculate the reward to"
        },
        "return": "The block reward amount in wei"
      },
      "reward(address[],uint16[])": {
        "details": "It is a service transaction invoked by system, which doesn't cost anyhting but still can modify state. Cannot emit events.",
        "params": {
          "benefactors": "List of addresses that can be rewarded",
          "kind": "List of type codes belonging to the benefactors. They determine the category an address belongs to. 0 is for block authors which we are only interested in"
        },
        "return": "List of addreses to be rewarded, and list of corresponding reward amounts in wei"
      },
      "setCommunityFund(address)": {
        "params": {
          "_newFund": "New community fund address"
        }
      },
      "setPayoutAddress(address)": {
        "params": {
          "_newPayoutAddress": "The payout address belonging to the sender"
        }
      }
    },
    "title": "Block reward contract"
  },
  "userdoc": {
    "methods": {
      "checkRewardPeriodEnded()": {
        "notice": "Checks whether the reward period is over or not (block and community)"
      },
      "getBlockReward(uint256)": {
        "notice": "Returns the block reward amount based on the block number and points of the S curve"
      },
      "resetPayoutAddress()": {
        "notice": "Resets the payout address. If a payout address is reseted/not set, the minted amounts get sent to the original one. The sender resets its own  payout address"
      },
      "reward(address[],uint16[])": {
        "notice": "The function that is called by the client to issue rewards at a new block. The rewards are minted: the balances of the corresponing addresses are simply increased with the amount"
      },
      "setCommunityFund(address)": {
        "notice": "Sets community fund address. Ideally it is a multisig wallet address"
      },
      "setPayoutAddress(address)": {
        "notice": "Sets payout address. Every sender can only set its own payout address. The contract only rewards block authors, but it is not checking who sets an address for itself. The community fund  can set a payout address too, if desired."
      }
    },
    "notice": "Performs payouts at each new created block. Block authors are rewarded according to an S-curve, while there is a constant payout for a community fund for a certain period of time."
  }
}